:0600000002030002034FA1
:03001300020327BE
:0F0300007800D2B3D2B27F00900600743FD29142
:0F030F0053903FF5A0C2907185718571857185FE
:0E031E0075A885D28AD28880FA1FEFB400033A
:10032C00759080718AF9C4540FD29193F5A0C29044
:10033C0071857185EF540F93C291F5A0D2907185A0
:10034C00718532EF0F718AF9C4540FD29193F5A0D5
:10035C00C29071857185EF540F93C291F5A0D29024
:0F036C0071857185FBEF940AB4000974007F005E
:0F037B007590808004EB7590BF327D14DDFE22FB
:0F038A0075F00A84AEF075F00A84E5F0C42E22F7
:0A0600003F065B4F666D7D077F67C4
:00000001FF
